:10000000022BF422FFFFFFFFFFFFFF023211123528
:10001000CE1235FDD2AF903D70E0FF640F600CEF63
:1000200064016007EF64026002E4F0E4903D71F067
:10003000A3740FF0903DA1F0E4903D63F07EF87F53
:10004000F67455FDFC1234CEE490F807F090F80AEF
:10005000E054E0903DA0F090F811E0903D73F07F07
:100060000112342E90F9CCE030E105E4903D70F0BF
:1000700090F824E04480F090F826E04480F0E4908A
:10008000F8CEF0903D26F0A3F0903D85F0903D41F4
:10009000F0903D641214CA00000000903D681214F4
:1000A000CA00000000903D6C1214CA00000000E479
:1000B000903D74F090F80574FFF090F808E0903DE2
:1000C00040F090F809E054C0903D58F090F80BE0F3
:1000D0005420903D57F090F809E05420903D87F06F
:1000E00090F808E054F064F06003020E69E0540FE9
:1000F000903D86F0903D57E06069903D86E0640653
:10010000706112265512264A740D120EEF1231221A
:10011000E4FF122C80E4903E06F0903E06E0FFC320
:100120009403501975F00CEF90F8301214FBAF8265
:10013000AE8312360B903E06E004F080DDE490F9C9
:10014000B0F07411F012103590F86830E006E04419
:1001500001F08004E054FEF0122A0B1226C560E57F
:1001600002024F903D86E06409600302025890F855
:1001700010E04401F0903D57E06016122655903D86
:1001800087E090F9C46005740CF080167407F08065
:1001900011903D87E090F9C46005740BF080037402
:1001A00001F0E490F830F07421F0E490F83CF07441
:1001B00021121060120FBB12268F78011226DB7EEF
:1001C000F87F207D657C541234CE1231C412264251
:1001D000903D221225E440381226B8E41211E77B44
:1001E000CD7ACC798C783F121074C004C005C0065B
:1001F000C00712268FE41211E7A804A905AA06ABCE
:1002000007D007D006D005D00412117A6002501E24
:1002100090F80574FFF090F9CCE030E00A903D577B
:10022000E070047F018002E4FF12342E8014122E4D
:100230008A903D2AE090F804F012317690F8057427
:100240000EF01226C570030201BF7F0112342E90FA
:100250003D267401F002006412263A6012EFC39446
:10026000005003020064EFD39408400302006412BC
:10027000264A740AF0E490F82BF090F82AF090F8EF
:1002800010E054FEF07F011235317D647C577F8091
:100290007E47120FCF903D751226B5903D7912140E
:1002A000BE7D557C5F12103D12291212268F903DA3
:1002B0007D1214BE120F5C121049C004C005C006A6
:1002C000C0077F06122422D003D002D001D0001232
:1002D00025BB122642903D811225E4500302063DC3
:1002E0001225FC903D811225E4500302063D903D0D
:1002F000811225FF903D7D1225E4400302063D1248
:100300000F5C121049C004C005C006C0077F06126A
:100310002422D003D002D001D0001225BB903D8111
:1003200012260B500302063D1225FC903D81122639
:1003300012500302063D903D437456F0A37498F0AA
:10034000A37458F0A3742FF0A37460F0A374ECF0BE
:10035000A3746DF0A374A2122661122687903D81CA
:100360001226191214CA00000000903D001214CA8F
:100370000000000012264A7404F090F810E054FEC9
:10038000F0903D58E0600302055C1226E460030231
:10039000044E1226A4600302044E90F82AE054F0A2
:1003A000F04405F090F863E054FEF090F862E054F9
:1003B000BFF090F861E054F9F04402F07D0AE4FFE8
:1003C000123595120F1D903D901214BE7EF97FC814
:1003D0001233FF903D941226D0FDFC903D981226DA
:1003E000D0FFFEEC7810121473903D9C12266C1214
:1003F00025E4402EE47FFF7E7FFDFC903D98122691
:1004000012601FE4FF7E80FDFC903D981226126072
:1004100011E4FF7E08FDFC903D8C12261250030271
:10042000055CE4FF7E02FDFC903D8C1225E4400A51
:100430007E04122671122612402BE4FF7E04FDFC7E
:10044000903D901225E450030203C302055C903DE9
:1004500086E0B40F051226A4600B903D86E064058B
:10046000600302055C120FBB7DC87C007F03123560
:10047000847D967C007F021235847F0112342E7FAA
:100480000C122ACA740C1225EB120F9912106A90E2
:10049000F9A87431F07D01E4FF12359512350FEFA4
:1004A00060770204F11226E470161226A47011126D
:1004B0000F1D903D9012266C1225E4400302055C4E
:1004C0007F021235DEBF011212362C12000390F8A3
:1004D0005DE04460F07F021235BD90F9BDE0B41FCD
:1004E0000A90F85FE04480F0547FF012280DEF602E
:1004F0002890F805E0640C6008740C1225EE120FC9
:10050000D912263A600EEF64056009122630740C89
:10051000F002063D121012803890F805E064086081
:100520000874081225EE120F7512263A600EEF6459
:100530000560091226307408F002063DE490F804C4
:10054000F01233277F031235DEBF01057F0C120F37
:100550001012102570030204A502099E7F011234B7
:100560002E7F0A122ACA740A1225EB120EBF120F2E
:10057000C512350FEF604680117F021235DEBF01D4
:100580000312100312280DEF603390F805E0640A9F
:100590006008740A1225EE12267912263A6018EFC6
:1005A00064016013EF6402600EEF640360091226B9
:1005B00030740AF002063D12101202063290F8055D
:1005C000E06404602DE064056028E0640660237444
:1005D000041225EE903D161214CA00000000903D52
:1005E0001A1214CA00000000903D081214CA00003C
:1005F000000012263A6017EF64016012EF64026097
:100600000DEF640360081226307404F0802F903DD3
:1006100058E07003121C097F031235DEBF01057F0D
:100620000A120F1090F804E060057F0A122EFB12E8
:100630002B62121025700302057902099E7F0512B4
:100640002422C004C005C006C0077F04122422D0A3
:1006500003D002D001D0001225BB122642903D7D6E
:100660001225E450030207E21225FC903D7D12257D
:10067000E450030207E27D477C677F557E5F120FDF
:10068000CF903D7D1226B5903D811214BEE47F02CD
:10069000FEFDFC903D7D122605903D811225E44033
:1006A000030200647F05122422C004C005C006C0F6
:1006B000077F04122422D003D002D001D0001225DB
:1006C000BB903D7D12260B50030207E21225FC90E1
:1006D0003D7D12261250030207E2903D431226632D
:1006E000745CF0A374F3F0A37462F0A37483F074E9
:1006F0006EA3F0A31226617467F0A37447F0903DD7
:100700007D1226191214CA00000000903D00121438
:10071000CA0000000090F805E0640B601B740B1227
:1007200025EE7F0112342E7F0B122ACA120F9990E8
:10073000F9A87411F012106A90F80AE0540F6404DA
:100740006009A3E0540760030207E2120F49120F89
:10075000C512350FEF604A80197F021235DEBF01E6
:100760000B12362C1200037F021235BD12280DEF3A
:10077000602F90F805E0640B600B740B1225EE12ED
:100780002679120FD912263A600DEF640460081220
:100790002630740BF0804B7F031233661226F180F3
:1007A0003290F805E06407601A74071225EE1226ED
:1007B0003A600DEF640460081226307407F080225E
:1007C000120F751233277F031235DEBF01057F0B31
:1007D000120F8C122285903D26E070030207590209
:1007E000099E7F03122422C004C005C006C0077FF3
:1007F00002122422D003D002D001D0001225BB1255
:100800002642903D791225E450030209A61225FCE8
:10081000903D791225E450030209A67D647C5712AD
:10082000103D1232A312268F903D791214BE7F0321
:10083000122422C004C005C006C0077F0212242271
:10084000D003D002D001D0001225BB122642903D29
:100850007912261250030209A61225FC903D791246
:10086000261250030209A6903D437453F0A3746B03
:10087000F0A37455F0A37402122665741AF0A374E1
:1008800065F074B0122684A37467F0A37447F090E7
:100890003D791226191214CA00000000903D001282
:1008A00014CA000000007F09122ACA120EBF7D641C
:1008B0007C007F0312358412350FEF606190F805DC
:1008C00074091225EE80117F021235DEBF0103127A
:1008D000100312280DEF604690F805E064096022CD
:1008E000122679903D457455F0A374021226657462
:1008F0001AF0A37465F0A374B0F090F805740912AF
:1009000025EE12263A600CEF60091226307409F0C9
:100910000209A67F031233661226F102098C90F8B1
:1009200005E064036039903D45745EF0A3748AF07D
:10093000A3745DF074BF12268490F8057403122529
:10094000EE903D161214CA00000000903D1A1214D9
:10095000CA00000000903D081214CA0000000012F6
:10096000263A600AEF600712263004F08038121C25
:10097000097F031235DEBF01057F09120F8C90F845
:1009800004E060057F09122EFB122B62903D26E0E9
:100990007003122285903D26E070030208C77F0392
:1009A0001235BD0200647D05E4FF1235957F01120A
:1009B0002422C004C005C006C0077F08122422D02C
:1009C00003D002D001D0001225BB7DE97C457F53C6
:1009D0007E4412345BE4903DA8F012268F1225D598
:1009E00040047F0080027F01903DA8EFF01225DBDC
:1009F0004005903DA28003903D341214A61226EBD0
:100A00007D167C491210551225DE4007903DA8E066
:100A1000FF80027F02903DA8EFF0903D221225DE7C
:100A20004005903DA28003903D221214A61225D5C8
:100A30004007903DA8E0FF80027F03903DA8EFF0C3
:100A40001225DB4005903DA28003903D341214A690
:100A50001226EB7DAD7C4A1210551225DE40079020
:100A60003DA8E0FF80027F02903DA8EFF0903D227C
:100A70001225DE4005903DA28003903D221214A66F
:100A80001225D54007903DA8E0FF80027F04903DED
:100A9000A8EFF01225DB4005903DA28003903D3485
:100AA0001214A61226EB903DA21214A6903D22121B
:100AB00014BE903DA21214A6903D751214BE903D36
:100AC000A9E0FF903DA8E0FE6F6014903DAAE0C34E
:100AD0009404500BE004F0903DA9EEF00209ADEE55
:100AE0006F6016903DAAE0B4040FE4F0903DA87446
:100AF00002F0A37405F0020064E4903DAAF0903D7A
:100B0000A97405F0122642903D751225E4500302A7
:100B100000641225FC903D751225E4500302006428
:100B2000903DA8E094027F01500F122422C004C01F
:100B300005C006C0077F01800D122422C004C00535
:100B4000C006C007E4FF122422D003D002D001D097
:100B5000001225BB122642903D7512261250030248
:100B600000641225FC903D751226125003020064A9
:100B7000903DA8E025E025E024ABF582E4343DF586
:100B8000831214A6AD07AC067EF87F1E1234CE90F9
:100B90003DA8E0C39402903D435005122695800E77
:100BA0007442F0A374BCF0A37444F0A37453F0A394
:100BB000122695F0903D751226191214CA000000F5
:100BC00000903D001214CA00000000903D70E0A3A8
:100BD000F07F021235DEBF010B12362C1236367F43
:100BE000021235BD1226BE64046003020CE912260F
:100BF000E46003020CE9903D71E06003020CE990AF
:100C0000F805E0640D60317D0F7C007F01123584B2
:100C100012101B740D12265790F8CCE0903D42F054
:100C20004410F090F8CC120E99122D8E903D7274F3
:100C30000FF0903DA17401F07F031235DEEF6401E7
:100C4000705A903DA1E0903D72F014601914601F3D
:100C500024F3703FE490F9C4120EEF122D8E903DF4
:100C6000A17401F0802D740E1226AD7402800574FB
:100C70000F1226ADF0903D161214CA00000000902D
:100C80003D1A1214CA00000000903D081214CA0058
:100C90000000001236171233CD12101B903D70E089
:100CA000FF640F6041EF6401603CEF6402603790C5
:100CB0003D72E014601424F2601C240D70281210A0
:100CC0002D6023903D707402801612102D601790D5
:100CD0003D707401800A121035600B903D70740FE6
:100CE000F07F031235BD122FC61226BE64036010BA
:100CF000903D86E064086008903D71E06402706C8D
:100D000090F805E064026053A3740212265A12267A
:100D10003A600EEF6408600990F8077402F0020070
:100D20006490F8057402F0120F491225F47F011245
:100D3000342E7F02123077120E6F1233CD903D1693
:100D40001214CA00000000903D1A1214CA000000DC
:100D500000903D081214CA00000000121C0990F80F
:100D600004E060057F09122EFB122B621226BE647E
:100D7000026010903D86E064076008903D71E06479
:100D800001706090F805E06401604712263A600D3A
:100D9000EF6407600812263014F0020064120FF0AE
:100DA00090F8057401F0903D2912265A903D3812B2
:100DB00014CA000000001225F412264A7402121010
:100DC00060120E6F1233CD903D751214A678021288
:100DD00026DB121C0990F804E060057F09122EFB47
:100DE000122E101226BE64016010903D86E064064B
:100DF0006008903D71E0640F706090F805E0640F4A
:100E0000603E740F1225EE12263A600EEF64066003
:100E100009122630740FF0020064120FF090F810DF
:100E2000E04401120E9990F8CCE0903D42F054EF6E
:100E3000F090F8CCF0123122E4FF122C80122D8EAB
:100E40001215D390F804E090F86830E006E0440111
:100E5000F08004E054FEF0122A0B122285903D2609
:100E6000E07003020BD10200641219480200649082
:100E7000F8CCE0903D42F054EFF090F8CCF07EF8E2
:100E80007F50903D43E0FCA3E0FD1234CE7EF87F1E
:100E9000527D427C011234CE22F0E490F9C4F090ED
:100EA0003DA8E025E025E024ABF582E4343DF58360
:100EB0001214A6AD07AC067EF87F1E1234CE227E39
:100EC000F87F50903D43E0FCA3E0FD1234CE7EF865
:100ED0007F527D427C011234CE1233CD7D0F7C00D7
:100EE0007F011235847D327C007F0212358422F02E
:100EF000903DA8E025E025E024ABF582E4343DF503
:100F0000831214A6AD07AC067EF87F1E1234CE22E3
:100F10001235A97D057C007F03123584227EF87F7F
:100F20009C1233FF903D881214BE903D881214A687
:100F3000E4FDFC903D8C1214BE903D881214A6E492
:100F4000FFFEEC7810121473227D0F7C007F0112DB
:100F500035847D327C007F02123584227EF87F1E2C
:100F60007D477C671234CE7DFFE4FF122912903D4D
:100F7000221214A6227EF87FBE7D0F7C001234CE92
:100F80007EF87FBC7D1F7C001234CE221235A97DF5
:100F9000057C007F03123584227EF87F50903D430C
:100FA000E0FCA3E0FD1234CE7EF87F527D427C014E
:100FB0001234CE7EF87F5412360B227D0F7C007FD8
:100FC00001123584227D647C007F03123584221255
:100FD000345B903D221214A6227EF87FBE7D1F7CDA
:100FE000001234CE7EF87FBC7D3F7C001234CE22CE
:100FF0007D0F7C007F011235847D327C007F0212E0
:1010000035842212362C1236361200037F02123536
:10101000BD227F031233661226F1227D197C007FE8
:101020000312358422122285903D26E022121C09EB
:1010300090F804E0221215D390F804E0227EF87FA5
:101040001E1234CE7D10E4FF22903D811214BE7F2B
:1010500007122422227F807E4712345B903D222299
:10106000F0123617E4FF122C80227D017C007F05F0
:1010700012358422EC4D6011E8497017ED33EC33E2
:1010800004600DE4FCFFFEFD22E933E8330470F850
:1010900002125A12122558046009E4CC2481500629
:1010A000285009021264284003021261C0E0EB4A92
:1010B0007044B98006D0E0FB021250EF4E701CBDA8
:1010C0008008EBFFEAFEE9FD80EBE98DF0A4FEE588
:1010D000F002115DE9CDF9EAFEEBFFEF89F0A4FC27
:1010E000E5F0CE89F0A42EFFE435F0CD89F0A42DF3
:1010F000FEE435F08067EF4E7005BD80D780C3EF0A
:101100008BF0A4ACF0EE8BF0A42CFCE435F0F8EFFF
:101110008AF0A42CE5F038FCE433CB8DF0A42CFC51
:10112000E5F03BF8EE8AF0A42CFCE5F038F8E43367
:10113000CF89F0A42CFCE5F038CF3400CE89F0A4A0
:101140002FFFE5F03EFEE433C98DF0A42EFEE5F05E
:1011500039CD8AF0A42FFFE5F03EFEE43DFD33D00B
:10116000E0FB50070BBB000F021264EC2CFCEF33CA
:10117000FFEE33FEED33FD02123C74F8CC6480CCFC
:10118000C86480C8F582046043C3EB9FF5F0EA9E13
:1011900042F0E99D42F0E89C45F060305018E5824D
:1011A0005FFFE582F42B5582FB50210ABA001D092E
:1011B000B90019088016E5825BFBE582F42F5582A1
:1011C000FF50090EBE00050DBD00010CC3EB9FF5DD
:1011D000F0EA9E42F0E99D42F0E89C45F06007CCC1
:1011E0004820E701B3EC2275F020800E75F01080E6
:1011F0000575F0087D007E007F003392D530D50361
:10120000121454EC334010EF33FFEE33FEED33FD98
:10121000EC33FCD5F0ED22E5F0247EA2D513CC9280
:10122000E7CDCEFF22E9D2E7C933E833F892D5ED16
:10123000D2E7CD33EC33FC5002B2D522EC30E710CC
:101240000FBF000C0EBE00080DBD00040BEB6014B8
:10125000A2D5EB13FCED92E7FD2274FFFCFDFEFF2F
:1012600022E480F8A2D574FF13FC7D80E480EFBBFC
:10127000010689828A83E0225002E722BBFE02E354
:101280002289828A83E49322BB010CE58229F582BC
:10129000E5833AF583E0225006E92582F8E622BB91
:1012A000FE06E92582F8E222E58229F582E5833A05
:1012B000F583E49322BB010689828A83F0225002DF
:1012C000F722BBFE01F322F8BB010DE58229F5826E
:1012D000E5833AF583E8F0225006E92582C8F62234
:1012E000BBFE05E92582C8F222C5F0F8A3E028F08C
:1012F000C5F0F8E582158270021583E038F022BB54
:10130000010A89828A83E0F5F0A3E022500687F083
:1013100009E71922BBFE07E3F5F009E319228982E8
:101320008A83E493F5F074019322EF2BFFEE3AFEEB
:10133000ED39FDEC38FC22E88FF0A4CC8BF0A42C26
:10134000FCE98EF0A42CFC8AF0EDA42CFCEA8EF0D3
:10135000A4CDA8F08BF0A42DCC3825F0FDE98FF0BA
:10136000A42CCD35F0FCEB8EF0A4FEA9F0EB8FF0B1
:10137000A4CFC5F02ECD39FEE43CFCEAA42DCE3539
:10138000F0FDE43CFC2275F008758200EF2FFFEEC3
:1013900033FECD33CDCC33CCC58233C5829BED9AA1
:1013A000EC99E58298400CF582EE9BFEED9AFDECFF
:1013B00099FC0FD5F0D6E4CEFBE4CDFAE4CCF9A845
:1013C0008222B800C1B90059BA002DEC8BF084CF4D
:1013D000CECDFCE5F0CBF97818EF2FFFEE33FEED24
:1013E00033FDEC33FCEB33FB10D703994004EB994E
:1013F000FB0FD8E5E4F9FA227818EF2FFFEE33FE61
:10140000ED33FDEC33FCC933C910D7059BE99A4095
:1014100007EC9BFCE99AF90FD8E0E4C9FAE4CCFBAD
:101420002275F010EF2FFFEE33FEED33FDCC33CC01
:10143000C833C810D7079BEC9AE899400AED9BFD8A
:10144000EC9AFCE899F80FD5F0DAE4CDFBE4CCFA9D
:10145000E4C8F922C3E49FFFE49EFEE49DFDE49C02
:10146000FC22EB9FF5F0EA9E42F0E99D42F0E89CF9
:1014700045F022E8600FECC313FCED13FDEE13FE04
:10148000EF13FFD8F122BB010789828A830214A6D9
:101490005005E9F802158DBBFE05E9F8021599899A
:1014A000828A830215A5E0FCA3E0FDA3E0FEA3E091
:1014B000FF22E0F8A3E0F9A3E0FAA3E0FB22ECF0BE
:1014C000A3EDF0A3EEF0A3EFF022A8828583F0D085
:1014D00083D0821214E11214E11214E11214E1E437
:1014E00073E493A3C583C5F0C583C8C582C8F0A3C0
:1014F000C583C5F0C583C8C582C822A42582F582EC
:10150000E5F03583F58322E0FBA3E0FAA3E0F922BE
:10151000F8E0FBA3A3E0F925F0F0E5821582700264
:101520001583E0FA38F022F8E0FBA3A3E025F0F9F8
:10153000F0E582158270021583E038FAF022EBF0B4
:10154000A3EAF0A3E9F022BB010789828A8302158E
:10155000075005E9F80215B5BBFE05E9F80215BE0E
:1015600089828A830215C7D083D082F8E4937012EF
:10157000740193700DA3A393F8740193F58288838B
:10158000E4737402936860EFA3A3A380DFE6FC0812
:10159000E6FD08E6FE08E6FF22E2FC08E2FD08E2BE
:1015A000FE08E2FF22E493FC740193FD740293FEB3
:1015B000740393FF22E6FB08E6FA08E6F922E2FB51
:1015C00008E2FA08E2F922E493FB740193FA740248
:1015D00093F92290F804E0903E0CF090F837E03058
:1015E000E7227EF87F341233FF121F547EF87F34D7
:1015F00012190A121EDB700C903E0D1214A6903DBB
:101600005B1214BE90F843E030E7227EF87F401270
:1016100033FF121F547EF87F4012190A121EDB702E
:101620000C903E0D1214A6903D5F1214BE903D5BCF
:10163000121F8B7003021773903D5F121F8B700394
:10164000021773903D41E014606F1470030217128B
:101650002402600302175F121EF4903D5F121EED1C
:10166000401E121EE24019121F2E12205B903D41B7
:101670007402F07D007C281219307D007C8080335C
:10168000903D5F121EF7903D5B121EED5003021756
:101690005F903D5B121EE5500302175F121F2E1272
:1016A000205B903D417401F07DB97C271219307D9B
:1016B0001C7C7F1234CE02175F90F804E030E02CDF
:1016C0001220B9121EFD903D5B121EDB4003021773
:1016D0005F122022903D5B121EDB400302175F90D9
:1016E0003E0CE030E003121F2E0217391220B9120F
:1016F0001EFD903D5B121EED4065122022903D5B69
:10170000121EED405A903E0CE020E003121F2E0204
:10171000175C90F804E030E029121EF4903D5F124F
:101720001EDB503B122022903D5F121EDB5030909A
:101730003E0CE030E003121F2E90F804E054FEF05F
:10174000801D121EF4903D5F121EED4012121EE22B
:10175000400D903E0CE020E003121F2E12205B9003
:101760003D5B1214CA00000000903D5F1214CA00D5
:1017700000000090F804E020E40302185D90F84FA8
:10178000E030E775903D101214B2C000C001C002F5
:10179000C00312193CD003D002D001D000121FC9DF
:1017A0007054121F67903D101214BE903D10121419
:1017B000A6903D04121F85603D122009121EDB50C9
:1017C0002B1220C3903D10121EFD903D0C121EDB0B
:1017D000501A903E0CE030E406121F2E121FC11268
:1017E000206B1214CA000000001235EE12202B12DA
:1017F00014CA000000001218EE90F9B7E020E703C9
:101800000218ED121921121F46122034903D381291
:1018100014A6903D0C121EDB401F122009121EDB85
:1018200040030218ED1220C3903D04121EFD903DAE
:101830000C121EDB40030218ED903E0CE030E40673
:10184000121F2E121FC112206B1214CA00000000BA
:1018500012202B1214CA000000000235EE90F9B7D6
:10186000E030E709121921121F4612203490F84F78
:10187000E030E779903D101214B2C000C001C00200
:10188000C00312193CD003D002D001D000121FC9EE
:101890007058121F67903D10121F856039E47F0B4E
:1018A000FEFDFC903D10121EFD903D0C121EED4001
:1018B00025122009121EED401D903D0C121F6A12C8
:1018C00020B3903E0CE020E406121F2E1236229028
:1018D000F804E04410F012202B1214CA000000009B
:1018E000903D041214CA000000001218EE22903D30
:1018F0005AE025E0244FF582E4343DF583E0FCA373
:10190000E0FD7EF87F441234CE221233FFEC543FC8
:10191000FC903E111214BE903E111214A6903E0D82
:101920002290F9B0E054FEF07EF97FB41233FF222A
:101930007EF87F201234CE7EF87F22227EF87F4C04
:101940001233FFEC543FFC2290F808E054F0FF9073
:101950003D2FF090F80574FEF090F804F0EF60076A
:1019600090F810E04401F0903D2FE0121567199FA8
:101970000019C0101A36201A78301A96401AA95049
:101980001AAF601AB5701AC0801AD4901B09A01B38
:1019900021B01B39C01B4AD01B79E000001BC3904B
:1019A000F8077420F090F8067486F01234FB6E602D
:1019B00003021BC8EF540F70F27F0112342E80EB2C
:1019C000903D57E0600890F9C4740DF08005E490F4
:1019D000F9C4F090F8CCE0903D42F054EFF090F86C
:1019E000CCF0123122121BE61234FB6E6003021B94
:1019F000C8EF540F14600C24FD601024FD60142403
:101A000007801890F8CE7409F0801690F8CE740A0A
:101A1000F0800E90F8CE740BF0800690F8CE74082B
:101A2000F0123508FF90F868E0BF04054401F0802B
:101A3000B754FEF080B27402121BC91234FB6E6000
:101A400003021BC8EF540F14600E24FD601224FD26
:101A500060162407701A801890F8CE7421F080DB8D
:101A600090F8CE7422F080D390F8CE7423F080CB1F
:101A700090F8CE7420F080C390F9C47409F07F050B
:101A8000122C80E4FF12342E1234EF6F6003021B1D
:101A9000C812325B80F27403121BC91234EF6F60FC
:101AA00003021BC812325B80F27D6E7C63800A7D6C
:101AB000207C6B80047D3D7C5B7F477E67022F68C6
:101AC000121BDB90F8CE7443F01234EF6F60030208
:101AD0001BC880F5121BF4121BFF90F8CE744BF05C
:101AE0001234EF6F6003021BC87F021235DEBF01A4
:101AF000EF90F817E020E6E812000390F85DE0446C
:101B000060F07F021235BD80D77F09122ACAE4FF38
:101B100012342E1234EF6F6003021BC8122D0A809C
:101B2000F27F0A122ACAE4FF12342E1234EF6F60D9
:101B300003021BC8122D0A80F2121BDB1234EF6F56
:101B40006003021BC8122D0A80F2121BF4121BFF45
:101B50001234EF6F70727F021235DEBF011690F8FB
:101B600017E020E60F12000390F85DE044E0F07FFC
:101B7000021235BD122D0A80D790F80BE030E51423
:101B800090F809E090F9C430E505740CF080177402
:101B900007F0801290F809E090F9C430E505740B65
:101BA000F080037401F0121BE61234FBB50619EF46
:101BB000540FFF90F8CEBF04057482F080EB748060
:101BC000F080E67F0112342E2290F9C4F01236170D
:101BD0007F05122C80E4FF12342E227F0B122ACABA
:101BE000E4FF12342E221236177F05122C80E4FFF8
:101BF00012342E227F0C122ACAE4FF12342E227DC8
:101C0000327C007F021235842290F9BDE0B43F0A95
:101C100090F85FE0547FF04480F090F837E030E7D0
:101C20001F7EF87F341233FF121F157EF87F3412A7
:101C300033FF121EC870091220AD903D161214BE5B
:101C400090F843E030E71F7EF87F401233FF121F09
:101C5000157EF87F401233FF121EC870091220ADA6
:101C6000903D1A1214BE90F84FE030E71F7EF87FC7
:101C70004C1233FF121F157EF87F4C1233FF121ED9
:101C8000C870091220AD903D081214BEE4FFFEFD9D
:101C9000FC903D16121EDB7003021EC7E4FFFEFD22
:101CA000FC903D1A121EDB7003021EC7E4FFFEFD0E
:101CB000FC903D08121EDB7003021EC790F805E081
:101CC00014602514601624FB500624FA601F805F00
:101CD000903E121214CA00036EE88022903E121247
:101CE00014CA000432388016903E128027903D724C
:101CF000E0903E12B4021D1214CA00043238903E25
:101D0000161214CA00000003903E1A1214CA0000F2
:101D10000010801B1214CA00061A80903E1612147E
:101D2000CA00000003903E1A1214CA00000008E422
:101D3000903D2AF0903E121214A6903D16121EED10
:101D400040047F0180027F00903E0FEFF0903D1A2B
:101D50001214A6903E16121EFD903D16121EED4066
:101D6000047F0180027F00903E10EFF0903D16123C
:101D700014A6903E1A121EFD903D08121EDB500460
:101D80007F0180027F00903E11EFF0A31214A69015
:101D90003D1A121EED40047F0180027F00903E0C30
:101DA000EFF0903D161214A6903E16121EFD903DC7
:101DB0001A121EED40047F0180027F00903E0DEF5D
:101DC000F0903D1A1214A6903E1A121EFD903D0886
:101DD000121EDB50047F0180027F00903E0EEFF068
:101DE000903D161214CA00000000903D1A1214CA49
:101DF00000000000903D081214CA0000000090F896
:101E000004E0540714605B14607A24026003021E2D
:101E1000B2903E0CE0600FA3E0600BA3E06007907F
:101E20003D2A74028013903E0FE06056A3E060529A
:101E3000A3E0604E903D2A7401F0903D341214CA24
:101E40003FFFFFFF7D107F011232A3903D3412143B
:101E5000A61220B3903D38121F6A1220B312362208
:101E60008055903E0CE0600AA3E06006A3E06002AB
:101E70008036903E0FE0701AA3E06006A3E0600297
:101E80008010802E903E0FE06010A3E0600CA3E075
:101E90006008903D2A7401F0801D903E0CE07008AF
:101EA000A3E0600CA3E06008903D2A7402F0800774
:101EB0008000E4903D2AF0122091FEEF6E60031244
:101EC0001F2E90F804EEF022EC543FFC903E2212BC
:101ED00014BE903E221214A6903E1E1214B2C302EB
:101EE0001462903D5F7F807E1A7D067C001214B2E2
:101EF000D3021462903D5BE47F08FEFDFC1214B235
:101F0000021337903E15E075F00890F9AC1214FBFF
:101F1000AF82AE8322903E1EEC543FFC0214BEEF13
:101F200075F003A4243BF582E4343EF5832290F857
:101F300013E04402F022F0EF75F003A4243DF58293
:101F4000E4343EF58322ED5403FDE4FC22E475F015
:101F500001021510903E0DEC543FFC0214BE75F0CA
:101F60000890F9A80214FB903D101214A678020202
:101F7000147390F80FE0903E0EF090F8CAE054020F
:101F8000903D2BF0221214BE903D0C1214A6EC4D85
:101F90004E4F22903DFC74FFF5F0121527C3903D83
:101FA000F2E99582EA958322E0FF75F00890F9AF97
:101FB0001214FBE02290F807F0903D74E004F0E08A
:101FC0002290F826E04480F02212132A903D10124D
:101FD00014BE903D5AE004F0E0640422903DFC12EF
:101FE000150712126FFF22F07410A3F0A37404F00F
:101FF000227B017A3D79F2903DFC02153E1214A637
:10200000903E15E0F9F8021473E4FF7E60FDFC9049
:102010003D0C22AA07E490F80CF090F810E044017F
:10202000F0227F807E1A7D067C0022E4903D5AF0EB
:10203000903D1022903D0C1214BE90F9B0E0440186
:10204000F022F07F01023531903DEFE4021510904F
:102050003E0EE0FE5402903D2CF02290F804E04445
:1020600001F022EE5408903D2DF02290F804E05447
:10207000EFF0903D0C22903DFFE0FEEF8EF08422C9
:10208000903E1A1214A6903E1622A3F0123531A3E8
:102090002290F804E0FF903D2AE02212132A903E9D
:1020A0000F0214BEFDFCFAF9F8D3021462903E1E32
:1020B0000214A6903D380214BEE47F08FEFDFC9099
:1020C0003D5F22E47F0AFEFDFC22A3F0E4A3F0A31F
:1020D00022903DC412153E7B017A3D79C7903DEFB9
:1020E00012153E903DC4121F4D12126FFF3395E042
:1020F000FE903E04F0A3EFF04E7003022281903E6A
:1021000004E07004A3E064256003022268903DC4EB
:10211000121F4E12126FFE3395E0903E04F0A3CED4
:10212000F0903E04E0FEA3E0FFEE6003022268EFC1
:10213000249D70030221C424F070030221D124FEE7
:1021400070030221F824FD70030221F8240C6003BF
:10215000022268903DFF7410F075F00412204812BE
:102160001486903E001214BE121FF1903DFFE0FF56
:10217000FBE4FAF9F8A31214A61213C2742B2BF580
:1021800082743E3AF583E0FF903DFC121F4DEF1242
:1021900012B5903E001214A6C007903DFFE0FBE48C
:1021A000FAF9F8D0071213C2903E001214BEEC4D9B
:1021B0004E4F70B7121F9350030220E3121FDC1220
:1021C000354A80F075F0021220481212FFFF0222F9
:1021D0007B903DEFE475F003121510121547121FA6
:1021E000F7121FDC70030220E312354A903DFDE434
:1021F00075F0011212E980E9903E04E07004A3E05A
:10220000647570047F0A80027F10903DFFEFF090AC
:102210003DEF121F4D12126FFF121FF11220767444
:102220002B25F0F582E4343EF583E0FE903DFC1270
:102230001F4DEE1212B5122076FF70E0903DFC1299
:1022400015077401903DF36B7008E965827003EA2D
:10225000658370047F30800B121F9350030220E3CC
:10226000121FDC12354A80F0903E04A3E0FF1235C5
:102270004AEF640A60030220E37F0D12354A022010
:10228000E3E4FEFF22903D63E0700904F090F81350
:10229000E04408F090F805E0903E14F0640C60060D
:1022A000E0B408028000E4FF123020903D301214A8
:1022B000A6903D22121EDB50127420121FB594020C
:1022C000500302240F12356502240F7F051235DEFC
:1022D000EF700302240F90F85BE020E70302240F65
:1022E000903D59E004F07EF87F581233FF903E0C89
:1022F000121F187EF87F581233FF903E10121F579E
:10230000903E101214A6903E0C121EDB70D8903D29
:1023100059E01424FD500B601D14604114605D02EF
:10232000239E903D641214A6903E0C1214B2121318
:102330002A903D648041903D64121F6A903D0012D6
:1023400014BE903D641214CA00000000903E14E0D8
:10235000FFD394024043EF940D4043803C903E0CE9
:102360001214A6903D681214BE903D681214A6780F
:1023700003121473903D681214BE8022903E0C121A
:1023800014A6903D6C1214BE903D6C1214A67803F6
:10239000121473903D6C1214BEE4903D59F0E47F2A
:1023A00004FEFDFC903D22121EFD903D00121EED2C
:1023B000400C7421121FB5D3940240358029903D02
:1023C000221214A6903D68121EED500E903D22126E
:1023D00014A6903D6C121EED401290F80774221264
:1023E0001FB8D39402400A1235658005E4903D740D
:1023F000F0903D59E025E02443F582E4343DF58337
:10240000E0FCA3E0FD7EF87F501234CE12357E90C2
:10241000F808E0FF903D40E06F6006903D267401B3
:10242000F022AB07903E0D7404F0A314F0A3121435
:10243000CA00000000EB121567245800246601242E
:102440007402248103249204249F0524AC0624B939
:102450000724CA08000024E07DBC7C4212258F7D41
:10246000537C440224DD7DDB7C4D12258F7D727C04
:102470004F0224DD7D6B7C5312259B7D027C5580B1
:102480005C7D1A7C641225B37EF87F1E7DB07C656E
:10249000804B7D647C5712259B7DF37C5C803E7D68
:1024A000837C621225A7746EFDFC80317D987C567A
:1024B0001225A77D2F7C5880247DEC7C601225B3EB
:1024C0007EF87F207DA27C6D80137EF87F1E7DF1DB
:1024D0007C411234CE7EF87F207DBC7C421234CE0B
:1024E000E490F9A8F004F0E490F9B0F004F07F0271
:1024F000123531E4903E0CF0903E0DE0FF903E0C22
:10250000E0C39F507390F9AFE030E7F9E490F9A889
:10251000F0903E0F1214B2C000C001C002C0037E92
:10252000F97FAC1233FF121F46D003D002D001D086
:102530000012209B90F9A87401F090F9B7E030E701
:10254000F9E490F9B0F0903E0F1214B2C000C0014F
:10255000C002C0037EF97FB41233FF121F46D003BE
:10256000D002D001D00012209B90F9B07401F090FD
:102570003E0CE004F00224F8903E0F1214A6903EA8
:102580000E122003A31214BE903E0F1214A6227E38
:10259000F87F1E1234CE7EF87F20227EF87F1E1236
:1025A00034CE7EF87F20227EF87F1E1234CE7EF855
:1025B0007F20227EF87F1E1234CE2212132A903DF5
:1025C000001214BE903D001214A6780112147390EC
:1025D0003D000214BE903DA21214BE903D34121470
:1025E000A6903DA21214B2D302146290F805F0E452
:1025F00090F804F090F813E04404F022903D00E4D9
:102600007F02FEFDFC1214B2021337E47FE87E0362
:10261000FDFC1214B2C30214621214A67802121442
:1026200073903D301214BEE4903D59F0903D642209
:1026300090F8077402F090F80622903D86E0FF645F
:102640000F22E47FE87E03FDFC2290F810E04401B5
:10265000F090F9C42274FE90F805F0E490F804F0CC
:1026600022F0A37457F0A37464F0A3221214BE7E68
:1026700002E4FFFDFC903D902290F810E04404F04D
:1026800054FBF022A3F0A3745FF0A37455F02290E2
:102690003D220214A6744DF0A374DBF0A3744FF036
:1026A000A374722290F80BE0541864102290F9C4BD
:1026B000F0903DA1221214BE903D340214A690F871
:1026C0000BE054072290F808E0FF903D40E06F22B5
:1026D0001214BE903D941214A6E422121473903D7D
:1026E000300214BE903D86E0640F22903DA2021499
:1026F000BE1234B570030227AE24FE603724FE609C
:1027000057240360030227D21234AD24FD60121453
:10271000600D2404700E903E0C7442F00227D280AB
:102720000A0227BBEF30E4030227C7903E0C744433
:10273000F00227D21234AD14600F24FE600D24FC89
:10274000600B240770090227CC802E806E804CEF2E
:1027500030E40280720227CC1234AD12156727775D
:1027600000277901278102278903278B05279306F4
:10277000279B07000027A38053903E0C7441F080F4
:1027800051EF30E402804080328030903E0C74453E
:10279000F0803F903E0C7446F08037903E0C7447BA
:1027A000F0802F90F809E030E402801B801E123484
:1027B000AD24FD60062403700A8011903E0C744322
:1027C000F0800FEF30E4051234C78006903E0C74A1
:1027D00040F090F805E0B40C07903E0CE02408F0BF
:1027E00090F8CEE0FF903E0CE0FE6F600A90F8108B
:1027F000E04404F054FBF090F8CEEEF07F01123587
:10280000DEBF0108903D2EE0FF12342E2290F965C4
:102810007401F090F805E0FC6409600FEC640B6053
:102820000AEC640A6005EC640C7018121F727002E6
:10283000FF2212204F6002805312206360028058F2
:102840007F012290F80FE0903E0EF05404FE121F1C
:102850007AAF06EF70030228FEE070030228FE90B4
:10286000F80F7406F0EC6407600DEC64086008E48F
:1028700090F804F0122B62E4903E13F0903E0DF0BD
:10288000121F727002FF2212204F600790F80F741F
:1028900002800A122063600990F80F7408F07F002C
:1028A000227EF87FC01229017BFF1220A4403490C1
:1028B0003E0F1214A6E4FFFEEC7810121473E47BB2
:1028C0001FF8D312146240207EF87FC41229017BC6
:1028D0000F1220A4400D903E13E004F0E0B4020873
:1028E0007F0122E4903E13F07D0AE4FF12359590BB
:1028F0003E0DE004F0E0C3941940857F01227F0083
:10290000221233FF903E0F1214BE903E0F1214A6F7
:10291000E422903E0CEFF0ED24E0601524F0602FEF
:102920002431601C24EF7036903E13E4121FE780C0
:1029300034903E13E4F0A37480F0A37407F0802574
:10294000903E137401F0A3E4F0A37408F080169095
:102950003E137404F0A3E4F0A3740AF08007E4903B
:102960003E13F0A3F0903E0D1214CA00000000E4E4
:10297000903E11F0A3F0903E13E0FEA3E0FFC39061
:102980003E12E09FEE6480F8903E11E06480985023
:102990005E903E0CE0FF121F5EE4F075F008EF124F
:1029A0001F617401F0903E0C121FA830E7F775F01C
:1029B00008EF121F61E4F0903E0D1214B2C000C087
:1029C00001C002C003903E0C121F061233FF121FFB
:1029D00046D003D002D001D00012132A903E0D122F
:1029E00014BE903E11E475F0011212E902297690AE
:1029F0003E0CE06009A3121FFD903D348009903E1B
:102A00000D121FFD903D221214BE221234B530E487
:102A100027540F60231234AD14600F24FD600D2481
:102A2000FD600B24077009022A9B802380558027B4
:102A3000EF30E4028060804B90F804E030E428122C
:102A400034AD14600A24FA600E24077012804C9092
:102A50003E0C7409F0804A903E0C740BF08042EFFB
:102A600030E4028031803490F804E030E01D12340C
:102A7000AD24FC60062404700480208006EF30E45E
:102A8000028013903E0C740AF080161234AD70026E
:102A90008009EF30E4051234C78006903E0C7408BC
:102AA000F090F80AE0540FFFBF050A903E0CE0B426
:102AB0000A037422F0903E0C1234BF1235DEBF01BF
:102AC00008903D2EE0FF12342E22122013903D7309
:102AD000E0FF64036004EFB40407AF0212339A808E
:102AE00005AF021232E6EA24F7601D14602224FECC
:102AF000603F04705690F9C47404F07EF87F1E7D28
:102B0000557C5F1234CE804390F9C47403F0803B4F
:102B1000903D58E0FFB4400890F9C47405F0802B54
:102B2000EF90F9C4B480057406F0801F740AF08039
:102B30001A90F9C47404F090F85FE04402F090F940
:102B4000CCE020E00690F85C7420F012361790F884
:102B50000F740EF07F05122C807D327C007F020204
:102B600035841234B5540724FE603804705D123485
:102B7000AD24FC600624047010805E90F805E0909F
:102B80003E14B4020280128015EF30E402804590BA
:102B9000F805E0903E14B402057422F080417412EE
:102BA000F0803C1234AD14600A24FA600E240770E1
:102BB000128026903E147411F08024903E147413F9
:102BC000F0801CEF30E402800B800E1234AD6009FF
:102BD000EF30E4051234C78006903E147410F09074
:102BE0003E141234BF1235DEBF0108903D2EE0FFC7
:102BF00012342E22787FE4F6D8FD75810F022C3B2B
:102C000002000EE493A3F8E493A34003F68001F2DC
:102C100008DFF48029E493A3F85407240CC8C333D5
:102C2000C4540F4420C8834004F456800146F6DFA4
:102C3000E4800B01020408102040809030CEE47E36
:102C4000019360BCA3FF543F30E509541FFEE49399
:102C5000A360010ECF54C025E060A840B8E493A360
:102C6000FAE493A3F8E493A3C8C582C8CAC583CA8B
:102C7000F0A3C8C582C8CAC583CADFE9DEE780BE43
:102C8000903E0EEFF090F810E054FEF090F828E03F
:102C9000FBA3E0F954016018E954FEFA122042EB5C
:102CA00054106006EB54EFFA801FEB4410FA8019C1
:102CB000E94401FA90F829122042EB54046006EB33
:102CC00054FBFA8004EB4404FA90F828EA122042FC
:102CD000EB4403FA90F828F0A3E912204290F82878
:102CE000EBF0123531E4FA0AEAB403FB90F810E095
:102CF0004404F054FBF0903E0EE0FB70057F0102AF
:102D00003531AD03E4FF1235952212280DEF600531
:102D10007F031233661235081215672D37002D39DF
:102D2000012D41022D49032D51042D61052D690608
:102D30002D590700002D378038903E0C7441F080EB
:102D400036903E0C7442F0802E903E0C7443F0801E
:102D500026903E0C7444F0801E903E0C7447F08028
:102D600016903E0C7445F0800E903E0C7446F08038
:102D700006903E0C7440F0903D2FE054F0FF903EE2
:102D80000CE0BFD0042408800090F8CEF022903DE3
:102D90004F7419F0A3E4F0A3741BF0A3E4F0A37440
:102DA0001DF0A3E4F0A3741FF0A3E4F0903D5AF0EB
:102DB0007EF87F44903D4FE0FCA3E0FD1234CE7ED0
:102DC000F87F467D007C011234CE7EF87F50903D26
:102DD00043E0FCA3E0FD1234CE7EF87F527D427CBE
:102DE000011234CE1233CD903D5B1214CA000000A4
:102DF00000903D5F1214CA00000000903D0C1214B8
:102E0000CA00000000903D101214CA000000002209
:102E10001234B5540724FE60200470451234AD24EA
:102E2000FC60062404700480468006EF30E40280D3
:102E300039903E0C7422F0803C1234AD14600A24A8
:102E4000FA600E240770128026903E0C7421F080E8
:102E500024903E0C7423F0801CEF30E402800B8041
:102E60000E1234AD6009EF30E4051234C7800690CD
:102E70003E0C7420F0903E0C1234BF1235DEBF01C0
:102E800008903D2EE0FF12342E2290F837E030E714
:102E9000F97EF87F341233FFEC543FFC903E101261
:102EA00014BE90F843E030E7F97EF87F401233FF1C
:102EB000EC543FFC903E0C1214BE1220C3903E1006
:102EC000121EFD903E0C121EED4017E47FD07E07CF
:102ED000FDFC903E0C121EED4008903D2A7401F05E
:102EE0008005E4903D2AF0903D2AE090F86830E0BB
:102EF00005E04401F022E054FEF022903E0CEFF099
:102F00007F01123020903D381214A6903D34121EDD
:102F1000DB4014E47F04FEFDFC903D34121EFD9066
:102F20003D00121EED4040903E0CE0FF1235A97DA1
:102F3000327C007F031235847EF87F3012360B7EA0
:102F4000F87F3C12360B7EF87F4812360BE4903D3A
:102F50002AF0121F2EE490F804F0903D381214CAA3
:102F600000000000121FC122903E0CECF0A3EDF017
:102F7000AB07AA06903D58E0FFB4400890F9C4742E
:102F800005F0800FEF90F9C4B480057406F080035B
:102F9000740AF07EF87F1EAC02AD031234CE7EF8C8
:102FA0007F20903E0CE0FCA3E0FD1234CE123617D9
:102FB0007F05122C80E4FF12342E1234EFB5070582
:102FC00012325B80F52290F804E0903E0DF0FD9007
:102FD000F809E0540F903E0CF0ED30E007E0B40447
:102FE00003123012903E0DE020E10330E410903ED9
:102FF0000CE0FF64016004EFB4070312301290F894
:10300000CE7408F07F011235DEBF0105E4FF1234F3
:103010002E22903D70E0903D71F07F0112342E22FF
:10302000903E15EFF0121FAA30E74B121F03123328
:10303000FF121F46903E161214BE121F031233FFDA
:10304000121F46903E1A1214BE903E15E0601312F5
:103050002080121EDB701F903E161214A6903D3485
:103060008011122080121EDB700C903E161214A6E6
:10307000903D221214BE22122013EA6402601990BD
:103080003D73E0FF64036004EFB404077F0912336B
:103090009A80057F091232E6EA24FE601A24FE2493
:1030A000FD500C2404701690F9C47403F0800E9047
:1030B000F9C4740AF0800690F9C47409F012361746
:1030C000E4FF122C807D327C007F02023584423D79
:1030D000A609CC413DA802413DA905413DAA0054A5
:1030E0003DAB00004453000045E90000478000006C
:1030F000491600004AAD413DBF00413DC000413D81
:10310000C100413DC200413DC300413E4D00503E23
:103110002B30313233343536373839616263646588
:10312000660090F8CCE04402F090F9CCE030E00F7B
:10313000E490F9D0F074021220CA7402F0800C906E
:10314000F9D07410F0A37404121FE790F86C741097
:10315000F0A37430F074051220CA7428F0741812A9
:103160001FEAE4121FEAA37406F0E4A3F0A3F0122E
:103170003617121FC1221234B5540714701D1234B1
:10318000AD24FC600624047004801E8006EF30E449
:10319000028011903E0C7482F080141234AD6009EC
:1031A000EF30E4051234C78006903E0C7480F09036
:1031B0003E0C1234BF1235DEBF0108903D2EE0FFF9
:1031C00012342E22E490F9A8F07411F0E490F9B0D2
:1031D000F07411F07F0212353190F9AFE030E7F969
:1031E000E490F9A8F07EF97FAC1233FF121F4690ED
:1031F0003D221214BE90F9B7E030E7F9E490F9B03F
:10320000F07EF97FB41233FF121F46903D34021452
:10321000BEC0E0C0F0C083C082C0D075D008758A3F
:1032200000758C45E4FF121F37E0FE30E01D121FD1
:103230001FE0FCA3E04C600C121F1F74FFF5F0129E
:1032400012E98007121F37EE54FEF00FEFB406D6D6
:10325000D0D0D082D083D0F0D0E032903D58E0FF83
:1032600064406038EFB48002803212350814600C7C
:1032700024FD600F24FD601D2407802090F8CE748B
:1032800011F022903D2FE090F8CEB430047422F07B
:10329000227412F02290F8CE7413F02290F8CE74BB
:1032A00010F022903E26EFF0121F5EEDF04401FE7A
:1032B00075F008EF121F61EEF0903E26121FA83045
:1032C000E7F7EF903E26600E121F061233FF121F23
:1032D00046903D34800C121F061233FF121F469099
:1032E0003D221214BE22AB0790F921740612352E2E
:1032F000748212208A7412F0123531A37405F01210
:103300003531E490F949F0123531EBB40B09743AD8
:1033100012208A7493800B90F94A743412352EA3CC
:10332000744CF012353122E4FF903D2EF090F805F8
:10333000E0B408027F0890F809E0FE540F700280A4
:1033400009EE30E4051234C78007EF2443903E0CA9
:10335000F0903E0C1234BF1235DEBF0108903D2EB6
:10336000E0FF12342E22AB07123484903D2AEFF096
:10337000E4FAEAC39B50157F02123531123531123F
:103380003484903D2AE0B507100A80E6122091901F
:10339000F804F06F6003121F2E22EF90F956B40B61
:1033A0001674A9F090F955742AF090F9547431F01C
:1033B00090F9687409F0227444F090F95574C1F0E2
:1033C00090F9547492F090F9687401F022E4903E00
:1033D0000CF0903E0CE0FFC39404501575F00CEF18
:1033E00090F830121F0D12360B903E0CE004F08066
:1033F000E112357E90F9A87411F090F9B0F022AA8C
:1034000006A9077B0112126F903E2AF0900001126C
:103410001288903E29F0900002121288903E28F007
:10342000900003121288903E27F01214A622903DBD
:1034300026E0702690F80BE030E70C90F80AE020C8
:10344000E40590F8D38006EF90F8D3600A741FF07B
:103450007D027F040235957401F022903E0CECF061
:10346000A3EDF0AB07AA067EF87F1EAC02AD0312F7
:1034700034CE7EF87F20903E0CE0FCA3E0FD1234B9
:10348000CE0231C490F8C8E0FE540EC31324FE608F
:103490000C240270047F018013E4FF800FEE541EA1
:1034A000C313FEBE02047F0480027F022290F8094B
:1034B000E0FF540F22E4903D2EF090F804E022E06B
:1034C00090F8CEF07F0122903D2E7401F022903EC4
:1034D00015ECF0A3EDF0903E16E08F828E83F09015
:1034E0003E15E0AA06A9077B019000010212C790D1
:1034F000F808E054F0FF903D2FE02290F808E0FF3C
:1035000054F0FE903D2FE02290F808E0540F2290F6
:10351000F8CAE020E1037F002290F80FE012206457
:10352000600990F80F7408F07F00227F0122F07F7D
:1035300001E4FEEEC39F5011E4FDFC0DBD00010C43
:10354000BC01F8BDF4F50E80EA22E4FDFCC2998FBF
:10355000992099100DBD00010CD3ED94D0EC64803E
:10356000948740ED2290F8077430F07F0112342EDA
:10357000903D267401F090F813E04410F0227D0194
:103580007C007F05121F1FECF0A3ED121F36E044F4
:1035900001F07F0122AB077C00123584AF031235A6
:1035A000DEEF60F8AF030235BDAD0790F810E044E0
:1035B00002F01232E690F810E054FDF022121F1FC4
:1035C00074FFF0A3121F36E054FEF07F01224389FE
:1035D00020438E10758DFA75886975985222E4FE25
:1035E000121F1FE0FCA3E04C70010EAF062290F802
:1035F00009E0540FB401057F0112342E22E4F58A4C
:10360000758C45438921D28CD2A9228F828E83E08A
:1036100054FEF04401F02290F824E0547FF044403E
:10362000F022121FC1547FF04440F02290F825E0B0
:1036300054F04405F02290F827E054F04405F022BD
:10364000FFFFFFFFFFFFFFFFFFFFFFFFFFFFFFFF8A
:10365000FFFFFFFFFFFFFFFFFFFFFFFFFFFFFFFF7A
:10366000FFFFFFFFFFFFFFFFFFFFFFFFFFFFFFFF6A
:10367000FFFFFFFFFFFFFFFFFFFFFFFFFFFFFFFF5A
:00000001FF
